{
  "contractName": "DFPlayerFactory",
  "abi": [
    {
      "inputs": [
        {
          "internalType": "address",
          "name": "_darkForest",
          "type": "address"
        }
      ],
      "stateMutability": "nonpayable",
      "type": "constructor"
    },
    {
      "inputs": [],
      "name": "submitSpwnPositions",
      "outputs": [],
      "stateMutability": "nonpayable",
      "type": "function"
    },
    {
      "inputs": [],
      "name": "submitSpwnAtSamePositionInLast5Mins",
      "outputs": [],
      "stateMutability": "nonpayable",
      "type": "function"
    }
  ],
  "bytecode": "0x608060405234801561001057600080fd5b5060405161070f38038061070f8339818101604052602081101561003357600080fd5b8101908080519060200190929190505050806000806101000a81548173ffffffffffffffffffffffffffffffffffffffff021916908373ffffffffffffffffffffffffffffffffffffffff1602179055505061067b806100946000396000f3fe608060405234801561001057600080fd5b50600436106100365760003560e01c8063add150c21461003b578063eb52517414610045575b600080fd5b61004361004f565b005b61004d61034a565b005b6000809054906101000a900473ffffffffffffffffffffffffffffffffffffffff1673ffffffffffffffffffffffffffffffffffffffff16637ed6f3af60405180604001604052807f273412d2c48caa96ee13fd45100060634a3f8a5021c00c3d1fb934b51c9e413481526020017f2577e2a4cafee88b7d63ef8969e11cb2d47ec28fa5910d348c84165f58d614d4815250604051806040016040528060405180604001604052807f0c6a9ba1b90ce076de1fd61080c921f96ce4a88b55a6cae36f5fa5186e8cd2fa81526020017f1ed85cc52f9dbabeb96480fac2178d67c0bb1b335324028bbf5f9737cb5f7890815250815260200160405180604001604052807f09978eb4154410da7bbb723bf7737f83cec7e1a1e76c8dda87258ec5515fd0b481526020017f293131e33284ea777b851fbfb5f9b88bbf72de25e00bda9c6c54d4db53a82ba081525081525060405180604001604052807f0fedb22963ae18871c30cf462913f1dab1b8c89dd9fc65014c972e4a2ce7882b81526020017f179b147d53c8483a315ce1688b9cf27002fcfaa551c034540cf0156088fd9dae81525060405180602001604052807f1c547ad9a3a68ef0e4f77bc09edfa7ecab4a09fe0c05fe618f6fa737edea8aaf8152506040518563ffffffff1660e01b81526004018085600260200280838360005b8381101561025c578082015181840152602081019050610241565b505050509050018460026000925b818410156102b05782846020020151600260200280838360005b8381101561029f578082015181840152602081019050610284565b50505050905001926001019261026a565b9250505083600260200280838360005b838110156102db5780820151818401526020810190506102c0565b5050505090500182600160200280838360005b838110156103095780820151818401526020810190506102ee565b50505050905001945050505050600060405180830381600087803b15801561033057600080fd5b505af1158015610344573d6000803e3d6000fd5b50505050565b6000809054906101000a900473ffffffffffffffffffffffffffffffffffffffff1673ffffffffffffffffffffffffffffffffffffffff16637ed6f3af60405180604001604052807f273412d2c48caa96ee13fd45100060634a3f8a5021c00c3d1fb934b51c9e413481526020017f2577e2a4cafee88b7d63ef8969e11cb2d47ec28fa5910d348c84165f58d614d4815250604051806040016040528060405180604001604052807f0c6a9ba1b90ce076de1fd61080c921f96ce4a88b55a6cae36f5fa5186e8cd2fa81526020017f1ed85cc52f9dbabeb96480fac2178d67c0bb1b335324028bbf5f9737cb5f7890815250815260200160405180604001604052807f09978eb4154410da7bbb723bf7737f83cec7e1a1e76c8dda87258ec5515fd0b481526020017f293131e33284ea777b851fbfb5f9b88bbf72de25e00bda9c6c54d4db53a82ba081525081525060405180604001604052807f0fedb22963ae18871c30cf462913f1dab1b8c89dd9fc65014c972e4a2ce7882b81526020017f179b147d53c8483a315ce1688b9cf27002fcfaa551c034540cf0156088fd9dae81525060405180602001604052807f1c547ad9a3a68ef0e4f77bc09edfa7ecab4a09fe0c05fe618f6fa737edea8aaf8152506040518563ffffffff1660e01b81526004018085600260200280838360005b8381101561055757808201518184015260208101905061053c565b505050509050018460026000925b818410156105ab5782846020020151600260200280838360005b8381101561059a57808201518184015260208101905061057f565b505050509050019260010192610565565b9250505083600260200280838360005b838110156105d65780820151818401526020810190506105bb565b5050505090500182600160200280838360005b838110156106045780820151818401526020810190506105e9565b50505050905001945050505050600060405180830381600087803b15801561062b57600080fd5b505af115801561063f573d6000803e3d6000fd5b5050505056fea2646970667358221220d7c13217bbf8073bca11329dfa4a439c44ecbf13ebf33b352e1aed2a000bab8564736f6c634300060b0033",
  "immutableReferences": {},
  "source": "// SPDX-License-Identifier: MIT\n\npragma solidity ^0.6.11;\nimport \"./Verifier.sol\";\n\ninterface IDarkForest {\n    function spwnPlanet(\n        uint[2] memory a,\n        uint[2][2] memory b,\n        uint[2] memory c,\n        uint[1] memory input) external;\n}\n\ncontract DarkForest {\n    struct TimestampData {\n        uint val;\n        bool isValue;\n    }\n\n    mapping(address => uint) public playerToLoc;\n    mapping(uint => TimestampData) public spwnLocToTimestamp;\n    mapping(uint => bool) public occupiedLoc;\n\n    IVerifier verifier;\n\n    constructor (address _verifier) public {\n        verifier = IVerifier(_verifier);\n    }\n\n    function spwnPlanet(\n        uint[2] memory a,\n        uint[2][2] memory b,\n        uint[2] memory c,\n        uint[1] memory input) public returns (bool) {\n        bool isValid = verifier.verifyProof(a, b, c, input);\n        require (isValid, \"incorrect spwn location\");\n        bool isAtAnotherPlayerRecentSpwnLocation = spwnLocToTimestamp[input[0]].isValue \n            && (spwnLocToTimestamp[input[0]].val - block.timestamp) <= 5*60;\n        require (!isAtAnotherPlayerRecentSpwnLocation, \"can't spwn near another player's recent spwn location\");\n        bool isAtOccupiedLocation = occupiedLoc[input[0]];\n        require (!isAtOccupiedLocation, \"can't spwn at occupied location\");\n\n        playerToLoc[msg.sender] = input[0];\n        spwnLocToTimestamp[input[0]] = TimestampData(block.timestamp, true);\n        occupiedLoc[input[0]] = true;\n        return true;\n    }\n}\n\ncontract DFPlayerFactory {\n    IDarkForest darkForest;\n\n    constructor (address _darkForest) public {\n        darkForest = IDarkForest(_darkForest);\n    }\n\n    function submitSpwnPositions() public {\n        darkForest.spwnPlanet([0x273412d2c48caa96ee13fd45100060634a3f8a5021c00c3d1fb934b51c9e4134, 0x2577e2a4cafee88b7d63ef8969e11cb2d47ec28fa5910d348c84165f58d614d4],[[0x0c6a9ba1b90ce076de1fd61080c921f96ce4a88b55a6cae36f5fa5186e8cd2fa, 0x1ed85cc52f9dbabeb96480fac2178d67c0bb1b335324028bbf5f9737cb5f7890],[0x09978eb4154410da7bbb723bf7737f83cec7e1a1e76c8dda87258ec5515fd0b4, 0x293131e33284ea777b851fbfb5f9b88bbf72de25e00bda9c6c54d4db53a82ba0]],[0x0fedb22963ae18871c30cf462913f1dab1b8c89dd9fc65014c972e4a2ce7882b, 0x179b147d53c8483a315ce1688b9cf27002fcfaa551c034540cf0156088fd9dae],[0x1c547ad9a3a68ef0e4f77bc09edfa7ecab4a09fe0c05fe618f6fa737edea8aaf]);\n    }\n\n    function submitSpwnAtSamePositionInLast5Mins() public {\n        darkForest.spwnPlanet([0x273412d2c48caa96ee13fd45100060634a3f8a5021c00c3d1fb934b51c9e4134, 0x2577e2a4cafee88b7d63ef8969e11cb2d47ec28fa5910d348c84165f58d614d4],[[0x0c6a9ba1b90ce076de1fd61080c921f96ce4a88b55a6cae36f5fa5186e8cd2fa, 0x1ed85cc52f9dbabeb96480fac2178d67c0bb1b335324028bbf5f9737cb5f7890],[0x09978eb4154410da7bbb723bf7737f83cec7e1a1e76c8dda87258ec5515fd0b4, 0x293131e33284ea777b851fbfb5f9b88bbf72de25e00bda9c6c54d4db53a82ba0]],[0x0fedb22963ae18871c30cf462913f1dab1b8c89dd9fc65014c972e4a2ce7882b, 0x179b147d53c8483a315ce1688b9cf27002fcfaa551c034540cf0156088fd9dae],[0x1c547ad9a3a68ef0e4f77bc09edfa7ecab4a09fe0c05fe618f6fa737edea8aaf]);\n    }\n}",
  "sourcePath": "/Users/afreesoul/Documents/zku/dark_forest_solidity/contracts/DarkForest.sol",
  "compiler": {
    "name": "solc",
    "version": "0.6.11+commit.5ef660b1.Emscripten.clang"
  },
  "schemaVersion": "3.4.4",
  "updatedAt": "2022-01-05T06:38:47.284Z",
  "networkType": "ethereum",
  "devdoc": {
    "kind": "dev",
    "methods": {},
    "version": 1
  },
  "userdoc": {
    "kind": "user",
    "methods": {},
    "version": 1
  }
}